:020000040800F2
:10000000184C00206D0300084F2C0008972A0008A8
:100010004D2C000893070008473800080000000036
:10002000000000000000000000000000A90200081D
:10003000510800080000000005030008392D0008E1
:100040008703000887030008870300088703000868
:100050008703000887030008870300088703000858
:100060008703000887030008870300088703000848
:100070009507000887030008A10700088703000808
:100080008703000887030008870300088703000828
:100090008703000887030008870300088703000818
:1000A000870300081D2E0008870300088703000847
:1000B00087030008870300088703000887030008F8
:1000C00087030008870300088703000887030008E8
:1000D0008703000887030008870300081535000818
:1000E00087030008870300088703000887030008C8
:1000F00087030008870300088703000887030008B8
:1001000087030008870300088703000887030008A7
:100110008703000887030008870300088703000897
:100120008703000887030008870300088703000887
:100130008703000887030008870300088703000877
:100140008703000887030008870300088703000867
:100150008703000887030008870300088703000857
:100160008703000887030008870300088703000847
:1001700087030008870300088703000800000000C9
:100180008703000887030008870300088703000827
:100190008703000887030008870300088703000817
:1001A0008703000887030008870300088703000807
:1001B00087030008870300088703000887030008F7
:1001C0008703000887030008000000008703000879
:1001D00087030008870300088703000887030008D7
:1001E00087030008870300088703000887030008C7
:1001F000870300088703000800F002F800F045F8C4
:100200000AA090E8000C82448344AAF10107DA4571
:1002100001D100F03AF8AFF2090EBAE80F0013F07E
:10022000010F18BFFB1A43F001031847804200007A
:10023000A0420000103A24BF78C878C1FAD852070B
:1002400024BF30C830C144BF04680C607047000050
:100250000023002400250026103A28BF78C1FBD8CF
:10026000520728BF30C148BF0B6070471FB504F06C
:10027000CBF800F037FA04000020002104F0AEF8BB
:10028000401C60601FBD10B510BD00F006FA11469D
:10029000FFF7ECFF03F0EAFA00F036FA03B4FFF7D9
:1002A000F2FF03BC00F06EFA2D4B19680868B0E845
:1002B000F04F80F30988BFF36F8F4FF0000080F399
:1002C000118870470000000008480068006880F34B
:1002D00008884FF0000080F3148862B661B6BFF35F
:1002E0004F8FBFF36F8F00DF00BF00BF08ED00E04E
:1002F000DFF80C00016841F470010160704700BF35
:1003000088ED00E0EFF30980BFF36F8F144B1A689C
:100310001EF0100F08BF20ED108A20E9F04F10608A
:1003200009B44FF0500072B680F31188BFF34F8FBD
:10033000BFF36F8F62B603F09BFE4FF0000080F3B7
:10034000118809BC19680868B0E8F04F1EF0100F5A
:1003500008BFB0EC108A80F30988BFF36F8F704735
:1003600034000020EFF30580704700000948804703
:1003700009480047FEE7FEE7FEE7FEE7FEE7FEE787
:10038000FEE7FEE7FEE7FEE704480549054A064B9F
:10039000704700000D2E0008F901000818460020E3
:1003A000184C0020184800201848002053EA020C7E
:1003B00000F069802DE9F04B4FF00006002B1FBFC5
:1003C000B3FA83F503FA05F424FA05F65E4012BF8A
:1003D0001643B2FA82F502FA05F4C5F120051EBFF4
:1003E00022FA05FC44EA0C04203556EA044C4FEA94
:1003F000144418BF641C4FF000084FF000099042ED
:1004000071EB030C39D3002919BFB1FA81F701FA56
:1004100007F6B0FA80F700FA07F6C7F120071EBF0B
:1004200020FA07FC46EA0C062037B6FBF4FCA7EBE3
:100430000507103F07F01F0BCBF120060CFA0BFB52
:100440002CFA06F644BFB3460026202FA4BF5E4612
:100450004FF0000B5BEA060C08BF4FF0010B19EBE5
:100460000B09ABFB027C48EB0608C01B06FB02CC69
:100470000BFB03CC71EB0C01C1E70B460246414676
:100480004846BDE8F08B13B54FF000004FF0000177
:10049000AFF30080BDE81C40704770B5064600F021
:1004A00065F80468054630460A22002100F062F82B
:1004B0002C6070BD10B5203AC0F00B80B1E8185028
:1004C000203AA0E81850B1E81850A0E81850BFF43E
:1004D000F5AF5FEA027C24BFB1E81850A0E81850DD
:1004E00044BF18C918C0BDE810405FEA827C24BF31
:1004F00051F8043B40F8043B08BF7047D20728BFBF
:1005000031F8023B48BF11F8012B28BF20F8023B0D
:1005100048BF00F8012B70474FF0000200B51346AA
:1005200094469646203922BFA0E80C50A0E80C5013
:10053000B1F12001BFF4F7AF090728BFA0E80C50C4
:1005400048BF0CC05DF804EB890028BF40F8042BBD
:1005500008BF704748BF20F8022B11F0804F18BF2A
:1005600000F8012B7047704770477047004870478C
:10057000B44500202DE9F04791460F4680460446D9
:10058000002614F8015B2DB100F030F80068405DE2
:10059000C007F6D12B2D02D02D2D18D0641E4A464F
:1005A0003946204600F02AF827B13968A14201D126
:1005B000C7F800804FF0020471050BD540420028B7
:1005C00003DDFFF7D3FF0460A007BDE8F08746F422
:1005D0008066E4E70028F8DAFFF7C8FF04606FF0F0
:1005E0000040F2E700487047B445002010B500F025
:1005F00079F8001D10BD00BFE53D00002DE9F05F5A
:10060000824615468B4600270AF10104B946007858
:10061000302801D09DB113E014F8010B0127782890
:1006200003D0582801D045B10AE00DB1102D07D1F3
:10063000002714F8010B102502E0082500E00A2528
:100640000026B0460EE005FB080005FB06F1012779
:100650001FFA80F801EB1046B6F5803F00D3B9468B
:1006600014F8010B294600F041F80028EBDABBF141
:10067000000F05D00FB1641E00E05446CBF80040D7
:10068000B9F1000F06D0FFF771FF02210160C81E0B
:10069000BDE8F09F48EA0640FAE77546FFF7A2FF7B
:1006A000AE4605006946534620F00700854618B05F
:1006B00020B5FFF769FEBDE820404FF000064FF07F
:1006C00000074FF000084FF0000B21F00701AC4687
:1006D000ACE8C009ACE8C009ACE8C009ACE8C009A6
:1006E0008D46704700487047D44500203A2800D214
:1006F000303820F02002412A01D3A2F1370088428D
:1007000001D34FF0FF30704710B50446AFF30080BF
:100710002046BDE81040FFF7C1BD00004FF0013C8E
:1007200050F8042B51F8043B9A4215D1A2EB0C036C
:10073000934313EACC130BD150F8042B51F8043B2C
:100740009A4209D1A2EB0C03934313EACC13E7D0EE
:100750004FF00000704700BFD01A01BAB1FA81F122
:1007600001F0180122FA01F0CB40C1F12001DBB207
:10077000C0B2C01A2CFA01F3D11A914311EAC31185
:10078000E6D1704701491820ABBEFEE72600020003
:100790007047FEE7014800F053B9000064050020EF
:1007A000014800F04DB90000C4050020016818237D
:1007B000CAB2103AB2FBF3F2054B6FF30901032AF8
:1007C0009B5CC36500D9091D816508467047000020
:1007D0006844000810B583694FF0C074826A01460E
:1007E000002053B1B3F5005F15D072B1012A0CD0CF
:1007F000022A0AD0032A09D104E01AB1012A06D03C
:10080000022A03D1C96AC90100D5012010BDC96AF5
:10081000A142FAD010BD002AF7D0012AF2D0022A54
:10082000F3D0032AF3D010BD30B50468256825F451
:1008300080252560046863608368402B036803D0CB
:1008400099600068C26030BD9A600068C16030BDC8
:10085000704700002DE9F041044621B14FF40061DA
:10086000C800C4E90201E0690025002862D02846DA
:100870002368D4E9021C3D4F40261A6841EA0C0166
:1008800001433A4041F40070104318602068076843
:10089000012000F055FA2068076020684660206853
:1008A0004668012000F04CFA20684FF6417246601D
:1008B000206885602068C56021688869104040F024
:1008C0008000886120688669012000F039FA20687C
:1008D00086612068C5612068C569012000F030FA92
:1008E0002068234B2349C561206800F58050826948
:1008F0001A4011438161206800F58050856901200C
:1009000000F01EFA20681C4900F5805085612068BF
:1009100000F580500160206800F5805005680120D6
:1009200000F00EFA206800F580500560A0690128EB
:1009300003D009E04FF480609AE720680F4A00F581
:100940008050C1691143C16160690D4982880A64A0
:100950008278C47845780378120443EA046042EA56
:10096000052210434864BDE8F08100000F8120FF9C
:10097000233FDEF8040020028020C1024000010075
:100980000080024072B6FEE72DE9F041876D044613
:1009900000F004FD064694F835000025022806D034
:1009A00080206065012084F83450BDE8F081206823
:1009B000016821F0160101602068416921F0800181
:1009C0004161206C08B9A06C20B12068016821F059
:1009D000080101602068016821F0010101600CE05C
:1009E00000F0DCFC801B052807D92021616503206D
:1009F00084F8350084F83450D7E720680068C007D1
:100A0000EED194F85C203F2001219040B86084F83A
:100A10003510002084F83450C7E790F835100229CB
:100A200003D08021416501207047052180F83510F1
:100A30000068016821F0010101600020704700009A
:100A40002DE9F84304464FF00009644B0820CDF827
:100A500000904FF41652A56D94F85C101B682E6838
:100A6000B3FBF2F700FA01F131420FD021680A68B6
:100A700052070BD50A6822F004020A6094F85C1051
:100A80008840A860606D40F00100606594F85C10DB
:100A90004FF0010808FA01F0304208D02168496996
:100AA000090604D5A860606D40F00200606594F806
:100AB0005C1004208840304208D02168096889070A
:100AC00004D5A860606D40F00400606594F85C1087
:100AD00010208840304218D021680968090714D5D1
:100AE000A86020680168490304D50068000308D5A0
:100AF000A16C07E00168C90503D4016821F0080171
:100B00000160216C09B12046884794F85C102020D0
:100B10008840304231D021680968C9062DD5A860C7
:100B200094F8350005282068016806D0490347D5A8
:100B3000006800031DD4616C1CE021F01601016007
:100B40002068416921F080014161206C08B9A06CE6
:100B500020B12068016821F00801016094F85C3040
:100B60003F229A40AA6084F8358084F83490216D41
:100B70001FE0E16B09B120468847606D00282BD04B
:100B8000606DC00714D0052084F835002068016826
:100B900021F0010101600098401C0090B84203D888
:100BA00020680068C007F6D184F8358084F8349056
:100BB000E16C002910D001B02046BDE8F0430847A1
:100BC0000168C905D5D4036823F01003036084F8D5
:100BD000358084F83490CCE7BDE8F88330000020FD
:100BE0002DE9F047044600F0D9FB054664B1022127
:100BF0004FF0000984F8351084F8349020680168BB
:100C000021F0010101600EE00120BDE8F08700BF86
:100C100000F0C4FB401B052805D920216165032095
:100C200084F83500F1E720680068C007F0D1D4E906
:100C30000020D4E90251D4E9043C284304F118050A
:100C400019430843116895E8E00140EA0C001C4B89
:100C50002843194040EA060040EA0700B8F1040FB3
:100C600040EA010003D1D4E90B1319430843106093
:100C700020680126656A4069042D20F0070045EAD6
:100C800000050CD1D4E90A01054341B12046FFF724
:100C9000A1FD20B14020606584F83560B4E720688C
:100CA00045612046FFF782FD94F85C303F229A4070
:100CB0008260C4F8549084F835600020A5E70000F5
:100CC0003F8010E02DE9F041044690F83400002503
:100CD0000128A66D0ED094F835C00127002084F8B5
:100CE0003470BCF1010F07D0022584F83400284687
:100CF000BDE8F0810220FBE7022784F835706065CB
:100D00002046FFF791FD94F85C103F208840B060CA
:100D10002068016841F0160101602068416941F0D6
:100D200080014161206C20B12068016841F0080118
:100D300001602068016841F001010160D7E700000F
:100D400070B5044600F02AFB0546601C02D004483A
:100D50000078044400F022FB401BA042FAD370BD8F
:100D6000240000202DE9FC474FF000060400B146A6
:100D7000009603D094F8440018B107E00120BDE8C4
:100D8000FC87204684F8456000F0E4F86748016875
:100D900041F480410160006800F4804001906448A3
:100DA000016821F4000101600168226A11430160B9
:100DB000206800F58050016841F00101016000F0F9
:100DC000EDFA4FF4FA77054609E000BF00F0E6FAC5
:100DD000401BB84203D9032084F8440068E020682F
:100DE00000F580500068C007F0D12068006920F04D
:100DF0001C0500F0F9FF4F4A4F4902448A4202D2D3
:100E000045F0080516E04D494D4A0144914202D291
:100E100045F00C050EE04B4A4B4902448A4209D387
:100E20004A4A4B491044884202D245F0040501E089
:100E300045F010052068056100214FF4004220466E
:100E400000F040F94FF00105B0BBFF20FFF778FF3D
:100E5000606890B300F0A2FA804641F28837012121
:100E60006A46204600F0EAF800F098FAA0EB080085
:100E7000B84217D800984007F1D5002120464FF41A
:100E8000805200F01FF9B8B900F088FA80466A462F
:100E90000121204600F0D2F800F080FAA0EB080013
:100EA000B8420BD901212046FFF7D4FC84F8445006
:100EB000032084F8456062E724E018E0009880068B
:100EC000E5D510216A46204600F0B8F8D0B9009860
:100ED000410703D54FF40061E16000E0E660800760
:100EE00001D5A66019E04FF48040A06015E0D4E978
:100EF0000210C00840EA510082B22046002100F0F2
:100F0000E1F830B101212046FFF7A4FC84F84450F9
:100F100034E740F6FF70FFF713FF49462046FFF71E
:100F200099FC84F84450002029E70000443802402E
:100F30000438014000D3CEFEC0E1E40040F1E9FDF9
:100F400040787D0100796CFC005A6202001F0AFAA9
:100F500080F0FA02F0B587B0044614216846FFF726
:100F6000DBFA30492068884259D12F48016841F0A6
:100F700000710160016801F000710591016841F0A4
:100F800080610160016801F080610591016841F0B4
:100F900000610160016801F000610591016841F0A4
:100FA00004010160016801F004010591016841F04C
:100FB00001010160016801F001010591016841F042
:100FC00002010160016801F002010591016841F030
:100FD00040010160006802240025694600F04000DD
:100FE000059003260B2732208DE8F1000F4800F012
:100FF000A7F8862069468DE8F1000D4800F0A0F8BA
:10100000200369468DE8F1000A4800F099F84FF492
:10101000205069468DE8F100074800F091F807B0CC
:10102000F0BD00000080024030380240000802405D
:101030000000024000040240001802402DE9F04781
:10104000044690F84400914682281DD082224FF633
:10105000FF7084F844204FF4F863226803EA81119A
:10106000258A136900EAC52003F01C0318430143D5
:1010700021F0020040F00105156100F08FF9012711
:1010800006464FF4803811E00220BDE8F08700BF2B
:1010900000F084F9801B404506D3002084F844709A
:1010A00084F845000320F0E720680569E807EFD1E0
:1010B0002068406981B2C9F8001084F844700020AB
:1010C000E3E700002DE9F041044690F8440042288F
:1010D0001ED042204FF6FF7384F8440096B2206879
:1010E0004FF4F867258A07EA81110269466103EA2D
:1010F000C520236802F01C021043014341F00305A0
:101100001D6100F04BF9012706464FF4803811E0CD
:101110000220BDE8F08100BF00F040F9801B40458F
:1011200006D3002084F8447084F845000320F0E7DB
:1011300020680569E807EFD184F84470E9E700000A
:101140002DE9F84FDFF80CB2012403254FF00F0A08
:1011500000220BF1040E00BF0B6804FA02F63340C4
:10116000B34278D10F7907F00307012F01D0022F86
:101170001AD187684FEA4209D1F80CC005FA09F87C
:1011800027EA08070CFA09FC4CEA070CC0F808C06B
:10119000476891F804C0B743CCF3001C0CFA02FC7A
:1011A0004CEA070CC0F804C00E79F643B6070BD022
:1011B000C6684FEA420C8F6805FA0CF826EA080662
:1011C00007FA0CF73743C7600E7906F00306022EC4
:1011D00012D1D6084FEA427800EB860600960F69D6
:1011E000D6F820904FEAD8660AFA06FCB74029EAFA
:1011F0000C063743009E37620F7906684FEA420CAF
:1012000007F0030705FA0CF807FA0CF726EA0806B8
:10121000374307604E6816F4403F1CD04E4E376887
:1012200047F480473760366822F00308970706F4D2
:1012300080460096494E3F0F4644B146D6F80868AE
:10124000DFF81C810AFA07FC404526EA0C0603D1A8
:101250004FF0000C41E076E0DFF808C1604502D1B4
:101260004FF0010C39E0DFF800C1604502D14FF0CA
:10127000020C32E0DFF8F4C0604502D14FF0030CFD
:101280002BE0DFF8ECC0604502D14FF0040C24E005
:10129000DFF8E0C0604502D14FF0050C1DE0DFF83B
:1012A000D8C0604502D14FF0060C16E0DFF8CCC084
:1012B000604502D14FF0070C0FE0DFF8C4C0604575
:1012C00002D14FF0080C08E0DFF8B8C0604502D149
:1012D0004FF0090C01E04FF00A0C0CFA07FC4CEA45
:1012E000060CC9F808C84F68DBF80060FF0226EA60
:1012F000030600D51E437746CBF80060D1F804C042
:10130000DEF800605FEA8C2C26EA030600D51E4357
:10131000DFF840C03E60ACF1040C4F68DCF80060C0
:10132000BF0326EA030600D51E430A4FCCF800602F
:10133000083FD1F804C03E685FEACC3C26EA0306C9
:1013400000D51E433E60521C102AFFF405AFBDE8D5
:10135000F88F0000083C0140443802400030014052
:10136000000002400004024000080240000C02405D
:10137000001002400014024000180240001C02400D
:1013800000200240002402400069084000D00120F3
:1013900070470AB1816170470904FBE70148806822
:1013A0007047000024000020024881680278114440
:1013B0008160704724000020032010B500F08CF8F5
:1013C0000F2000F005F800F03DF8002010BD0000EF
:1013D00010B500220146192088B000F05DF81920F0
:1013E00000F04CF81348016841F001010160006809
:1013F00005A900F001000690684600F0D5FC00F059
:1014000009FD0D4900220D4B40F2E734B0FBF1F12C
:101410000B480360C0E90342491EC0E9011200F015
:1014200008FF10B1012008B010BD054800F034FFDE
:10143000F9E700004438024040420F00000001403C
:10144000780800200C4882B0016841F080510160AA
:10145000006800F0805000900748001D016841F4CA
:1014600080410160006800220F2100F4804000905C
:10147000901E02B000F010B840380240002809DB8E
:10148000410900F01F028900012001F1E021904094
:10149000C1F80001704700000E4BF0B41B680D4608
:1014A000C3F30223C3F10706042E00D90426191D35
:1014B000072901D2002300E0DB1E012404FA06F113
:1014C0009C40491E2940641E994014402143F0BCB1
:1014D00002F0BAB90CED00E0064900F0070210B5C1
:1014E0004FF6FF040868044B204040EA02201843EE
:1014F000086010BD0CED00E00000FA050168012352
:10150000C0F8FC33002280F8F4238869044A40F0D4
:1015100000608861486D10434865002070470000F6
:10152000030000102DE9F04104008AB005D094F8C2
:10153000BD030025266820B108E001200AB0BDE8FF
:10154000F081204684F8BC5300F066F8032084F84C
:10155000BD03F06BC00500D42561206802F000F9DE
:1015600004F11001684628228846FEF7A3FF94E89C
:101570000F0001F0D5FF0227D8BB2068002102F040
:1015800033F90020012610E0C0EBC001421C04EB3F
:10159000810181F83D6081F83F504D648D640D6597
:1015A00081F83C00A1F84200D0B261688142EBD8DA
:1015B000002011E0C0EBC001421C04EB810181F866
:1015C000FD5181F8FF51C1F80452C1F80852C1F829
:1015D000105281F8FC01D0B261688142EAD8282219
:1015E00041466846FEF766FF94E80F0001F0FCFFF5
:1015F00010B184F8BD73A0E7606A84F8385084F8AD
:10160000BD63012802D12046FFF778FF206801F072
:10161000DDFF002092E7000030B5ABB00446142196
:1016200024A8FEF779FF90216846FEF775FF206831
:10163000B0F1A04F3ED14FF4001000900024684656
:101640001F9400F07BF808B1FFF79CF91A48016875
:1016500041F001010160006824AD022100F00100A9
:1016600029904FF4E85085E813000A23134D032214
:1016700024A92846CDE92723FFF762FD68152694A3
:10168000CDE9240424A92846FFF75AFD0A48001D85
:10169000016841F080010160006800F0800029903D
:1016A00005481430016841F480410160006800F48D
:1016B000804029902BB030BD3038024000000240FD
:1016C0001848F8B5016841F0805101600068164C77
:1016D00000F080500090206840F480302060FFF7D8
:1016E0005DFE4FF47A76054605E000BFFFF756FE33
:1016F000401BB0420FD86068C003F7D5206840F4A3
:1017000000302060FFF74AFE054606E0FFF746FE80
:10171000401BB04201D90320F8BD60688003F5D5B5
:101720000020F8BD403802400070004002480168C7
:1017300041F4807101607047007000402DE9F84F5E
:1017400004460078DFF824944FF000063746C007BF
:101750000ED0D9F8001021F40001C9F80010D9F812
:101760000010626B1143C9F80010606B00B90126CC
:10177000FE4D2068843500030ED5E16B286820F407
:10178000401008432860E06BB0F5801F01D010B115
:1017900002E0012600E0012720684FF4800BC00220
:1017A0000CD5216C286820F4400008432860206C88
:1017B000584501D1012601E000B901272068C10187
:1017C00000D50126800666D5E8483830016841F02A
:1017D000805101600068DFF898A300F0805000900D
:1017E000DAF8001041F48071CAF80010FFF7D6FD56
:1017F000804605E0FFF7D2FDA0EB080064287DD805
:10180000DAF80000C005F5D5DFF8608308F1680854
:10181000D8F8000010F440702AD0218E01F44071F5
:10182000814225D0D8F80010D8F8002021F440716A
:1018300042F48032C8F80020D8F8002022F4803228
:10184000C8F80020C8F80010D8F80000C0070FD072
:10185000FFF7A4FD824607E0FFF7A0FDA0EB0A0119
:1018600041F288308142CAD8D8F800008007F3D509
:10187000206BC0F3012103297ED0D9F8001021F498
:10188000F811C9F80010228ED8F80010C2F30B022C
:101890001143C8F800102078C00607D5286820F04A
:1018A000807028602868A16B084328602188AF48B1
:1018B0008830490405D5626E016821F44031114336
:1018C00001602188090405D5A26E016821F4402138
:1018D000114301602168C90305D5E26E016821F456
:1018E0004011114301602168890305D5226F016809
:1018F00021F4400111430160217800E034E1490600
:1019000005D5626C016821F0030111430160217863
:10191000090605D5A26C016821F00C011143016094
:101920002188C90505D5E26C016821F03001114319
:1019300001602188890505D5226D016821F0C0016B
:10194000114301602188490505D5626D016821F4C4
:101950004071114301602188090505D5A26D016818
:1019600021F44061114301602188C90407D5E26D6B
:10197000016821F4405100E068E0114301602188D2
:10198000890405D5226E016821F4404111430160AC
:101990002168490205D5A26F016821F080611143D9
:1019A000016021684FF0006A890209D5E26F016881
:1019B00021F0006111430160E16F514500D1012721
:1019C00021680A0700D50127490305D5626F016820
:1019D00021F04071114301602168090206D5D4F855
:1019E0008020016821F08051114301602168490184
:1019F00006D5D4F88420016821F00051114301601C
:101A00002068000106D5D4F88810286820F00070FE
:101A1000084328602068C00006D5D4F88C102868D8
:101A200020F0806008432860DFF84891012E02D042
:101A3000206880017ED5D9F800004E4620F08060F5
:101A4000C9F80000FFF7AAFC80460FE04A4AD9F81F
:101A50000030104023F4F8120243C9F8002012E7C6
:101A6000FFF79CFCA0EB080064287DD830680001DB
:101A7000F6D421783D487C30C90712D0616B81B91A
:101A8000237A62680168D0F800C09201C1F3014175
:101A900042EA0142CCF3036142EA016141EA037187
:101AA000016021680A0303D5E26BB2F5801F04D000
:101AB000C9021AD5216C594517D16368016894F899
:101AC0000CC002689B01C1F3014143EA0141C2F32A
:101AD000027241EA0C6141EA027101602968626A9E
:101AE00021F01F01521E114329602168C90110D540
:101AF000238A62680168D0F800C09201C1F30361D3
:101B000042EA034242EA0162CCF3027142EA017105
:101B10000160216889010CD56168228A237B94F8D1
:101B200008C0890141EA024141EA036141EA0C71BE
:101B3000016000E011E03168B04641F08061316041
:101B4000FFF72CFC064604E0FFF728FC801B642806
:101B50000AD8D8F800000001F6D5E7B3D9F800009C
:101B60004E4620F0805009E07BE00000083802403B
:101B70000070004000380240FFFCFF0FC9F8000071
:101B8000FFF70CFC074604E0FFF708FCC01B6428C5
:101B900067D83068C0438000F6D5216835480A030D
:101BA00001D5E26B1AB1C9021DD5216CD9B963699F
:101BB0000168277E02689B01C1F3014143EA0143AA
:101BC000C2F3027143EA076242EA017101602968C7
:101BD0006FF0FF0300E04BE0A26A21F4F85103EB41
:101BE0000222114329602168890212D5E16F514513
:101BF0000FD1238C6269016807689201C1F3036108
:101C000042EA034242EA0162C7F3027142EA017109
:101C100001602178090716D561690268D0F800C013
:101C20008B01277FC2F30362CCF3014143EA0141F8
:101C300041EA026141EA077101602868E16A20F423
:101C4000403008432860306840F080503060FFF733
:101C5000A5FB044608E000BFFFF7A0FB001B6428BB
:101C600002D90320BDE8F88F3068C0438000F3D468
:101C70000020F7E7883802402DE9F04705000F46BD
:101C800063D0444E306800F00F00B84209D230688B
:101C900020F00F0038433060306800F00F00B84289
:101CA00053D128683C4C810712D5400703D52068E2
:101CB00040F4E05020602878000703D5206840F405
:101CC00060402060A968206820F0F0000843206090
:101CD0002878C0072AD0304968680839012810D010
:101CE0000968022810D0890700292EDA216821F01E
:101CF000030101432160FFF751FB804641F288391F
:101D00000DE009688903EFE78901EDE7FFF746FB7E
:101D1000A0EB0801494502D90320BDE8F0876868B7
:101D2000216801F00C01B1EB800FEFD1306800F0B9
:101D30000F00B8420BD9306820F00F0038433060F4
:101D4000306800F00F00B84201D00120E5E72878A4
:101D5000400705D5E968206820F4E050084320607A
:101D60002878000706D52869216821F4604141EAF6
:101D7000C000206000F05EF82168084AC1F303113A
:101D8000515CC8400649086006480068FFF720FB20
:101D90000020C2E7003C02400838024070440008BE
:101DA00030000020280000200D4A0F2330B50360CA
:101DB0004FF4E0540B4B156805F0030545601568BA
:101DC00005F0F0058560156805F4E055C5601268FA
:101DD00004EAD2020261186800F00F00086030BD0A
:101DE00008380240003C024001480068704700008B
:101DF000300000200449054809680068044AC1F31E
:101E00008221515CC84070470838024030000020F1
:101E1000804400080449054809680068044AC1F381
:101E20004231515CC8407047083802403000002001
:101E300080440008154910B51548096811F00C02D6
:101E400013D04110042A0FD0082A0ED10F4C241FA2
:101E50002268236802F03F025B0207D52068C0F3C6
:101E60008810A0FB010106E0084610BD2168C1F3FF
:101E70008811A1FB00010023FEF798FA2168C1F345
:101E80000141491C4900B0FBF1F010BD0838024087
:101E90000024F4002DE9F84F04004FF000076ED045
:101EA0002078DFF87CA3AAF10408C007A8F1040594
:101EB0004CD0DAF800105046C1F38101012908D056
:101EC0000068C0F3810002280AD1D8F8000040025F
:101ED00006D52868800339D560680028DFD035E052
:101EE0006068B0F5803F0BD010B1B0F5A02F11D0D5
:101EF000286820F480302860286820F4802002E0E0
:101F0000286840F480302860606890B1FFF746FA96
:101F100006460AE0286840F480202860F0E700BF09
:101F2000FFF73CFA801B642872D828688003F7D535
:101F30000CE0FFF733FA064605E000BFFFF72EFA84
:101F4000801B6428F0D828688003F7D420788007A5
:101F500042D5DAF80010504611F00C0F08D0006896
:101F6000C0F3810002280BD1D8F80000400207D44A
:101F70002868800718D5E068012800D114E04AE1FC
:101F8000E0680028286817D040F001002860FFF7BB
:101F900005FA064605E000BFFFF700FA801B02289D
:101FA000C2D828688007F7D52069296821F0F80190
:101FB00041EAC00028600FE020F001002860FFF730
:101FC000EDF9064605E000BFFFF7E8F9801B02289F
:101FD0001ED828688007F7D42078000729D59048B4
:101FE00061696C3000298146016812D041F001011D
:101FF0000160FFF7D3F9064605E000BFFFF7CEF911
:10200000801B022804D8D9F800008007F6D510E01C
:1020100089E021F001010160FFF7C0F9064604E004
:10202000FFF7BCF9801B02287DD8D9F80000800793
:10203000F6D4207840076BD5DFF8E49109F1380930
:10204000D9F80000C0000BD4D9F8001041F080513D
:10205000C9F80010D9F80000012700F08050009066
:1020600070480168C90512D40168834641F4807143
:102070000160FFF793F9064605E000BFFFF78EF910
:10208000801B64284FD8DBF80000C005F6D5644EED
:10209000A068683601280AD008B1052811D0306838
:1020A00020F001003060306820F0040002E0306869
:1020B00040F001003060A068A0B1FFF76FF98346DF
:1020C0000CE0306840F004003060F0E7FFF766F99C
:1020D000A0EB0B0141F28830814268D8306880075C
:1020E000F4D50EE0FFF75AF9834607E0FFF756F9FB
:1020F000A0EB0B0141F28830814258D8306880074C
:10210000F4D42FB1D9F8001021F08051C9F8001093
:10211000A069E0B3DAF80010C1F3810102294DD0C3
:102120000228286800E042E020F08070286003D098
:10213000FFF734F904463DE0FFF730F9064604E0C6
:10214000FFF72CF9801B022831D828688001F7D4CA
:10215000D4E90921DFF8D0C0D4E9070694F830307B
:102160004F0894F82C1030430CEB074444EA8212D9
:10217000104340EA016040EA0370C8F80000286894
:1021800040F080702860FFF709F9044605E044E05C
:10219000FFF704F9001B022809D828688001F7D549
:1021A0003BE000BFFFF7FAF8001B022802D903202A
:1021B000BDE8F88F28688001F4D42EE00128D8F813
:1021C000000028D0E16900F480028A4223D1216A0C
:1021D00000F03F028A421ED1626A47F6C071014098
:1021E000B1EB821F17D1A16A4FF0FF3200F44033E8
:1021F00002EB5101B3EB014F0DD194F82C1000F01C
:102200007062B2EB016F06D194F8301000F0E0403C
:10221000B0EB017F01D00120CAE70020C8E7000031
:1022200008380240007000400000FFFF7047704710
:10223000704710B5040003D094F83D0010B107E0DA
:10224000012010BD002084F83C00204600F022F858
:10225000022084F83D002068211D00F0E5FD0120EA
:1022600084F8480084F83E0084F83F0084F8400079
:1022700084F8410084F8420084F8430084F8440064
:1022800084F8450084F8460084F8470084F83D004F
:10229000002010BD7047000090F83D10012901D0CA
:1022A00001207047174A022180F83D100168CB6871
:1022B00043F00103CB600068904214D0B0F1804F2E
:1022C00011D0114988420ED0104988420BD01049D4
:1022D000884208D00F49884205D00F49884202D071
:1022E0000E49884207D181680D4A1140062906D05F
:1022F000B1F5803F03D0016841F001010160002089
:102300007047000000000140000400400008004049
:10231000000C004000040140004001400018004053
:1023200007000100704770B5044600680025016988
:10233000C943890715D4C168C943890711D4EA1E66
:10234000026101212177206880698007204602D040
:10235000FFF7E8FF04E000F0A7F8204600F0A5F83A
:10236000257720680169C943490717D4C168C94363
:10237000490713D402216FF004020261217720681B
:10238000806910F4407F204602D0FFF7CBFF04E0C5
:1023900000F08AF8204600F088F825772068016967
:1023A000C943090716D4C168C943090712D40421D7
:1023B0006FF00802026121772068C069800720461B
:1023C00002D0FFF7AFFF04E000F06EF8204600F007
:1023D0006CF8257720680169C943C90617D4C1681C
:1023E000C943C90613D408216FF010020261217796
:1023F0002068C06910F4407F204602D0FFF792FFAA
:1024000004E000F051F8204600F04FF825772068EE
:102410000169C943C90708D1C168C943C90704D1C3
:10242000891E0161204600F041F820680169C94316
:10243000090609D4C168C943090605D46FF08001B3
:1024400001612046FFF7F3FE20680169C943C90511
:1024500009D4C168C943090605D46FF480710161CC
:102460002046FFF7E3FE20680169C943490609D405
:10247000C168C943490605D46FF040010161204697
:1024800000F01EF820680169C94389060BD4C168B1
:10249000C943890607D46FF0200101612046BDE8D9
:1024A0007040FFF7C5BE70BD7047704700680349B4
:1024B000884201D1FEF778BF70470000000001405C
:1024C00070477047704770472DE9F0410268044635
:1024D000002540F60F06D06911689368304205D197
:1024E00086067DD58E067BD5616E1CE1994F03F083
:1024F00001060F40374373D0C70709D0CF0507D572
:1025000001271762D4F8802042F00102C4F880202D
:1025100082070AD5DA0708D0276802223A62D4F87F
:10252000802042F00402C4F8802042070AD5DA076E
:1025300008D0236804221A62D4F8802042F00202F4
:10254000C4F8802002070CD501F02002324308D0E5
:10255000236808221A62D4F8802042F00802C4F8E6
:10256000802002050BD54A0109D523684FF400628B
:102570001A62D4F8802042F02002C4F88020D4F8F7
:102580008020002A36D0800605D5880603D5616EE6
:1025900009B1204688472168D4F880008968490637
:1025A00002D410F0280F27D0204600F0B1FD20689B
:1025B000806840061BD52068083050E8001F21F0D5
:1025C000400140E80012002AF5D1206F78B162493D
:1025D0000165206FFEF721FA00280BD0206F00E084
:1025E00010E0016D00E02046BDE8F04108472046BC
:1025F000FFF769FFBDE8F0812046FFF764FFC4F8EC
:102600008050F7E7276E2026012F7CD1C7067AD5A8
:10261000CF0678D51020106220688068400641D52A
:10262000216F086840680004000CE3D0B4F858201B
:102630008242DFD9A4F85A00C869B0F5807F2AD059
:10264000216851E8000F20F4807041E80002002A60
:10265000F6D12068083050E8001F21F0010140E861
:102660000012002AF5D12068083050E8001F21F040
:10267000400140E80012002AF5D1E667256621688E
:1026800051E8000F20F0100041E80002002AF6D1C6
:10269000206FFEF779F9B4F85800B4F85A10401AD0
:1026A00081B22BE0B4F85800B4F85A10B4F85A20AC
:1026B000401A81B2002A9DD000299BD0206850E8A2
:1026C000002F22F4907240E80023002BF6D12068FE
:1026D00000F1080050E8002F22F0010240E800233A
:1026E000002BF4D1E66725666566206850E8002F68
:1026F00022F0100240E80023002BF6D12046FFF71D
:10270000E0FE77E7FFE7C70208D55B0206D54FF486
:10271000801010622046FFF7D5FE6BE7020606D553
:102720000A0604D5A16E00297FF45DAF62E740067A
:10273000E7D54806E5D52046026852E8001F21F09B
:10274000400142E80013002BF6D18667856600F051
:10275000A1F94FE7200100041930000810B504006A
:1027600002D0A06F10B107E0012010BD002084F856
:102770007400204600F026F82420A0672068016835
:1027800021F001010160204600F0F4FC0128ECD0AA
:10279000606A10B1204600F0ADFB2068416821F46A
:1027A000904141602068816821F02A0181602068A1
:1027B000016841F0010101602046BDE8104000F0D1
:1027C000FDBB00002DE9F043ABB00746142124A85F
:1027D000FDF7A2FE90216846FDF79EFE3449386859
:1027E000884261D180150090002468461394FEF75A
:1027F000A5FF08B1FEF7C6F82E48016841F4802114
:102800000160006800F4802029902A48103801688F
:1028100041F008010160006824AD022100F00800C9
:1028200029904FF44070072385E8130003222248C3
:10283000CDE9272324A9FEF783FC204E4FF48069BD
:102840001F4A4FF0006830463260C6E90184C6E98D
:1028500003497461B461F46134627462FEF7C0F9D3
:1028600008B1FEF78FF8174D40233E6705F10800C9
:10287000B763134A80E818026C613032AC612846B5
:10288000EC612C626C62C5E90028FEF7A9F908B179
:10289000FEF778F8FD6600220521AF632720FEF7DA
:1028A000FBFD2720FEF7EAFD2BB0BDE8F08300001A
:1028B0000048004040380240000C024064050020FF
:1028C00028600240C405002030B4C36F202B1DD106
:1028D000C9B1C2B190F87430012B17D0012480F82F
:1028E00074400023036603685B681B0208D5046814
:1028F00054E8003F43F0806344E80035002DF6D1F2
:1029000030BC00F04FBD012030BC70470220FBE717
:102910002B497CB50B780025A1F10C04442B26D063
:1029200008460022452B407802D0542B2CD103E0DE
:10293000C0B1012818D001258DF8000088788DF8E5
:102940000100C8788DF8020068468DF80320FDF775
:10295000A4FDA0F5FA7140F6AC52914214D8606122
:1029600095B97CBDA261E7E70123A361E4E7B4F870
:102970000D00ADF800006846FDF78FFDA0F11401D1
:102980003C2901D820617CBD01220E4D94032846CC
:102990002146FEF7FEFC40F6B830FEF7D1F90022E2
:1029A00021462846FEF7F5FC07A1094B0522D1E98F
:1029B0000001CDE900010748694600F00FF87CBD31
:1029C0000C000020000402404552524F520000000B
:1029D000A0860100DC000020704700002DE9F843CC
:1029E0000446806F1F4616460D46202850D1CDB1B3
:1029F000C6B194F8740001284AD0012084F874000C
:102A000021224FF00008C4F88080A267FEF7C6FCC0
:102A10008146A068A4F85060A4F85260B0F5805FC9
:102A200003D004E00120BDE8F883206928B12E46D8
:102A30005FF0000584F8748010E00026FAE780213A
:102A4000204600F001FDB8B9C6B116F8010B2168A7
:102A50008862B4F85200401EA4F85200B4F8520044
:102A60004B464FF0000200970028E8D14FF040019C
:102A7000204600F0E9FC38B10320D4E735F8020B1A
:102A80002168C0F30800E3E72020A0670020CAE720
:102A90000220C8E77047FEE72DE9F0411148012503
:102AA0000F4C00221049AE03802310C0E714E1242C
:102AB00080E8E00082811D040A704B708C70CA703F
:102AC0000A714A71C0E90412C0E90625001FFEF729
:102AD00049F9002801D072B6FEE7BDE8F081000098
:102AE00000800240940000201C0000202DE9F041ED
:102AF00086B014216846FDF70FFD3448016841F0A7
:102B000004010160016801F004010591016841F0D0
:102B100080010160016801F080010591016841F0C8
:102B200001010160016801F001010591016841F0B6
:102B300002010160016801F002010591016841F0A4
:102B400008010160016801F008010591016841F088
:102B500040010160006844F281061D4F002200F030
:102B60004000314605903846FEF713FCDFF86480DC
:102B7000002240214046FEF70CFC00244FF4005098
:102B80004FF488118DE8130013486946FEF7D8FA10
:102B900001250096CDE90154694638460394FEF7B5
:102BA000CFFA40200090CDE9015469464046039495
:102BB000FEF7C6FA80206946CDE90004404602943B
:102BC000FEF7BEFA06B0BDE8F081000030380240E2
:102BD0000004024000180240000802400C48002196
:102BE00010B50A4C0C224FF4E1330460C0E9013106
:102BF000C160C0E904128161C16101624162FFF7F5
:102C0000ADFD002801D072B6FEE710BD00480040BF
:102C1000DC0000200C48002170B50222C0E903212D
:102C2000012382610624C0E9073141624FF0A045CB
:102C3000C0E90B31C0E90054FEF774FC002801D054
:102C400072B6FEE770BD000060010020FEE7FEE7FF
:102C5000044903220448FFF737FE012000F05DFE1F
:102C6000F6E700000C000020DC000020104C64257A
:102C7000104EA0690128FCD1012230468021FEF7C8
:102C800088FBD4E90410484390FBF5F000F045FEC2
:102C9000002230468021FEF77CFB20696169C0F18B
:102CA000640090FBF5F0484300F037FEE1E70000D8
:102CB0000000002000040240DFF860804FF400575D
:102CC000DFF85C904FF4FA75164E0EB53946404663
:102CD000FEF75AFB01281DD113A24B4607CA8DE807
:102CE000070014480B226946FFF778FE002430469F
:102CF00001228021FEF74DFB284600F00EFE002247
:102D000030468021FEF745FB284600F006FE641C95
:102D1000032CECDB012000F000FED7E700080240A6
:102D2000A0860100000402404B6579205072657353
:102D300073656400DC000020502010B572B680F38B
:102D40001188BFF34F8FBFF36F8F62B601F07CFA2B
:102D500018B104494FF080500860002080F31188BA
:102D600010BD000004ED00E030B593B0342168469A
:102D7000FDF7D2FB14210DA8FDF7CEFBFEF7D6FC24
:102D80002048016841F080510160006800F08050E7
:102D900012901D48016821F4404141F480410160D6
:102DA00000680224602500F44040129004204FF493
:102DB000A02203050121CDE90805CDE90643CDE9AF
:102DC0000A40CDE9001268460C94FFF763F808B199
:102DD00072B6FEE7FEF774FC08B172B6FEE74FF478
:102DE000805200200F21CDE90F0211900DA8CDE9EE
:102DF0000D140321FEF740FF002801D072B6FEE754
:102E000013B030BD403802400070004002480168F5
:102E100041F470010160704788ED00E00148FFF760
:102E200082BA000078080020F0B5274B4FF0804EA2
:102E3000264D02689842264E264F274C09D07045F1
:102E400007D0A84205D0B04203D0B84201D0A0427A
:102E500005D1D1F804C022F070024CEA0202984277
:102E60001BD0704519D0A84217D0B04215D0B84237
:102E700013D0A04211D0194DA8420ED0184DA8422F
:102E80000BD0184DA84208D0174DA84205D0174DB9
:102E9000A84202D0164DA84203D1CD6822F4407258
:102EA0002A434D6922F080022A43026098428A68D0
:102EB000C2620A68826201D0A04201D1096901633D
:102EC00001214161F0BD000000000140000400400C
:102ED00000080040000C0040000401400040014098
:102EE000004401400048014000180040001C004020
:102EF0000020004090F82410C90706D00168836ABA
:102F00004A6822F400321A434A6090F82410890774
:102F100006D50168C36A4A6822F480321A434A60BF
:102F200090F82410490706D50168036B4A6822F41B
:102F300080221A434A6090F82410090706D50168D8
:102F4000436B4A6822F400421A434A6090F8241006
:102F5000C90606D50168836B8A6822F480521A4339
:102F60008A6090F82410890606D50168C36B8A68C8
:102F700022F400521A438A6090F82410490611D5B1
:102F80000168036C4A6822F480121A434A60016C9B
:102F9000B1F5801F06D10168436C4A6822F4C00273
:102FA0001A434A6090F82410090606D50168826C1D
:102FB000486820F40020104348607047F8B50026A8
:102FC0000446C0F88060FEF7E9F9054620686FF016
:102FD0007E470068000708D500222B464FF40011F9
:102FE0002046009700F030FA60B92068006840077A
:102FF0000AD500222B464FF480012046009700F0AE
:1030000023FA08B10320F8BD2020A067E0672666F8
:10301000002084F87460F8BD10B5806B0021A0F822
:103020005A10A0F85210FFF74EFA10BD70B5846B1D
:1030300000252168A06FE66F8968090606D521285A
:1030400004D1A4F85250204600F087F82068806828
:10305000400606D5222E04D1A4F85A50204600F08E
:1030600057F8D4F8800040F01000C4F880002046E3
:10307000FFF729FA70BD10B5C169806BB1F5807F8B
:103080002DD00021A0F85A10026852E8001F21F448
:10309000807142E80013002BF6D10168083151E835
:1030A000002F22F0010241E80023002BF5D1016836
:1030B000083151E8002F22F0400241E80023002BA4
:1030C000F5D12021C167016E012908D1026852E8BB
:1030D000001F21F0100142E80013002BF6D1016E11
:1030E000012902D0FFF714FC10BDB0F85810FFF70B
:1030F000E8F910BD10B5806B016E012902D0FFF711
:103100006BFC10BDB0F858104908FFF7DAF910BD94
:10311000016851E8002F22F4907241E80023002B4F
:10312000F6D10168083151E8002F22F0010241E890
:103130000023002BF5D1016E012908D1026852E865
:10314000001F21F0100142E80013002BF6D10021EE
:103150002022C267016641667047026852E8001F7C
:1031600021F0C00142E80013002BF6D12021816735
:10317000704700002DE9F04104460368C269816888
:10318000D4E90450DFF8F0C17C4E29431F680025C4
:1031900010437B4A014307EA0C070F431F604FF4BB
:1031A00000402168E7684B6823F440533B434B6081
:1031B0002768A369216AD7F808C019432CF4306343
:1031C0000B43BB602168B1420AD1116811F00301C1
:1031D00052D001297CD0022971D003296ED184E01C
:1031E000684B99420AD1116811F00C0167D004298B
:1031F00065D0082975D00C2960D176E0624B9942E0
:103200000AD1116811F0300159D010296BD0202952
:1032100067D0302952D168E05C4B99420AD11168DD
:1032200011F0C0014BD040295DD0802959D0C02970
:1032300044D15AE0564B99420DD1116811F44071B6
:103240003DD0B1F5807F4ED0B1F5007F49D0B1F5CA
:10325000407F33D149E04F4B99420FD1116811F4AF
:10326000406109D0B1F5806F3DD0B1F5006F38D025
:10327000B1F5406F22D138E0012120E0464B994260
:103280000DD1116811F4405119D0B1F5805F2AD0E9
:10329000B1F5005F25D0B1F5405F0FD125E03F4B80
:1032A00099420BD1116811F4404108D0B1F5804F1B
:1032B00019D0814215D0B1F5404F16D01021E369E5
:1032C000374A4FF6EF7683422ED1092949D201E0E1
:1032D00009E006E0DFE801F00B0E11451345454516
:1032E00016000221EBE70421E9E70821E7E7FEF7F2
:1032F00081FD06E0FEF78EFD03E0104602E0FEF7DA
:1033000099FD78B36168400000EB5100B0FBF1F02B
:10331000A0F11001B14224D84FF6F0732168C0F338
:1033200042021840104320E009291AD2DFE801F0D8
:1033300005080B190D1919191000FEF75BFD06E0C1
:10334000FEF768FD03E0104602E0FEF773FD48B1AA
:10335000616800EB5100B0FBF1F0A0F11001B14247
:1033600001D9012502E0216880B2C86000206066B2
:10337000A0662846BDE8F081F369FFEF0010014028
:10338000903802400044004000480040004C00409B
:10339000005000400014014000780040007C0040D4
:1033A0000024F40070B50446006F002522236165F7
:1033B000A4F85820C4F88050E367D8B11F491346D9
:1033C000C163216F1E480864216F1E48C864206FC6
:1033D0000565666D2168206F32462431FDF772FC69
:1033E00040B11021C4F88010202084F87450E067A8
:1033F000012070BD206984F8745040B1216851E803
:10340000000F40F4807041E80002002AF6D12068E5
:10341000083050E8001F41F0010140E80012002A86
:10342000F5D12068083050E8001F41F0400140E825
:103430000012002AF5D1002070BD0000773000088E
:10344000F53000082D3000082DE9F0479A46174660
:103450000E460446089D4FF000094FF020084CE04E
:10346000681C4AD0FDF79AFFA0EB0A00A8422AD8B0
:103470004DB32068016849073FD5C069C0430005C6
:103480003BD421684FF400600862216851E8000FC6
:1034900020F4D07041E80002002AF6D120680830FC
:1034A00050E8001F21F0010140E80012002AF5D188
:1034B000C4F8788084F87490C4F87C80C4F8808064
:1034C0000320BDE8F087206850E8001F21F4D07188
:1034D00040E80012002AF6D12068083050E8001FAA
:1034E00021F0010140E80012002AF5D1C4F87880EB
:1034F00084F87490C4F87C80E2E72068C06936EAFA
:10350000000004D00020B842AAD00020D9E7012052
:10351000F9E700000148FEF7D7BF0000DC000020FB
:1035200070B504460698049D0D99012815D0E068F1
:1035300040F04000E060204600F028F8A16B41F424
:103540008031A163012D07D1A16841F00601A1607E
:10355000A16841F02001A16070BDA06B01290A4A59
:1035600020F48030A063E06800EA0200E060E068D8
:1035700020F44010E06003D1E06840F48010E06087
:10358000204600F003F8DDE7BFFFBDFF08B50E4998
:1035900000220092009B5B1C00938B420CD80369B5
:1035A000002BF7DA0092026942F001020261009AF0
:1035B000521C00928A4201D9032008BD0269D20739
:1035C000F5D1002008BD0000400D0300D0F8001E1A
:1035D00021F00301C0F8001ED0F8041841F00201E8
:1035E000C0F80418002070472DE9F04F0E4604463D
:1035F0000021DDF824B00D46109F0846DDF82C2090
:1036000004EB800CCCF80411401C0F28F8D32046A2
:10361000AFB1806B40F4001CC4F838C0884608463F
:10362000C4F8000ED4F80008012A2146C4F80008A6
:103630001BD00846D1F8001841F003011BE0D0F878
:10364000040840F0020CC4F804C8A06B20F4001C6D
:10365000C4F838C0206840F0400CC4F800C02068AE
:1036600040F0800CC4F800C0D8E70846D1F8001834
:103670000BB141F00101C0F80018102100F094F8DE
:1036800000B10125204600F071F800B10125404647
:103690004FF000694FF67F334FF0904AC4F810881E
:1036A000C4F81488C4F81C88002114E004EB41120B
:1036B000D2F800C9BCF1000F06DA11B1C2F800A9B6
:1036C00004E0C4F8009901E0C2F80009C2F810094A
:1036D000C2F80839491C8E42E8D8002115E000BF25
:1036E00004EB4112D2F800CBBCF1000F06DA11B1A5
:1036F000C2F800AB04E0C4F8009B01E0C2F8000B84
:10370000C2F8100BC2F8083B491C8E42E8D8D4F826
:103710001038BBF1000F6FF0804223F48073C4F8BF
:103720001038A061626103D1A06940F01000A0616F
:10373000A069094A0C9940EA0200A06119B1A06988
:1037400040F00800A061012F03D1A069034908439C
:10375000A0612846BDE8F08F00383C80040000409E
:10376000816821F0010181600020704708B50D4992
:1037700000220092009B5B1C00938B420AD80369D5
:10378000002BF7DA009210230361009A521C00927A
:103790008A4201D9032008BD0269D206F5D400206F
:1037A00008BD0000400D030018B50E4A0023009329
:1037B000009C641C009494420CD80469002CF7DA35
:1037C0002024009344EA811101610099491C009171
:1037D000914201D9032018BD01698906F5D4002062
:1037E00018BD0000400D030070B50446C0680129F3
:1037F0004FF0000520F0C040E06001D079B120E03A
:10380000E06840F00050E0600120FDF799FA60693F
:103810006D1C10F0010F10D1322DF5D30DE0E068D2
:1038200040F08040E0600120FDF78AFA60696D1C7D
:1038300010F0010F01D0322DF5D3322D01D0002030
:1038400070BD012070BDFEE7090700284FEA116135
:1038500004DB00F1E02080F80014704700F00F0056
:1038600000F1E02080F8141D7047000096B0FDF7CD
:10387000A3FDFFF779FAFFF739F92148016841F410
:103880000011016000680022052100F4001015906D
:103890000C20FDF701FE0C20FDF7F0FD00220521B4
:1038A0000E20FDF7F9FD0E20FDF7E8FDFFF7F4F817
:1038B000FFF794F9FFF7AEF912491C226846FCF7AE
:1038C000F9FD0021684600F034F80F4C1C220D4928
:1038D0001C31206007A8FCF7EDFD002107A800F0CF
:1038E00028F808491C2260600EA83831FCF7E2FD78
:1038F00000210EA800F01DF8A06000F015F8FEE70A
:10390000303802401444000800000020842801469A
:103910004FF0000000D0C81C704710B500B901205E
:1039200000F03EFB002010BD10B500F061FB002050
:1039300010BD7FB50D4641690446B0F9080081B15C
:10394000A16971B1FFF7E2FFD4E905122B468DE8BA
:1039500007002269D4E9001000F047FC039004B08E
:1039600070BDFFF7D3FF03A92B46CDE90001228AE2
:10397000D4E9001092B200F00BFC012801D0002025
:10398000EDE70398EBE700002DE9F041184C0F46F6
:10399000054666692068001D00F032FA38B92268D1
:1039A0000121A06992F82C2091408843A061681CF5
:1039B00007D137B12168BDE8F0410E48091D00F07C
:1039C00065BA20683544B5424560216805D2A068D3
:1039D000091DBDE8F04100F041BA6068091D00F022
:1039E0003DFA206B854200D22563BDE8F0810000DE
:1039F00034000020A00900202DE9F041054600F028
:103A000051FA2E4C2E4F2069401C2061206810B1C5
:103A1000E06940B32DE025602069012829D1002606
:103A200006EB860007EB800000F00AFA761C072EF2
:103A3000F6D323488C3000F003FA2148A03000F080
:103A4000FFF91F48B43000F0FBF91D48C83000F002
:103A5000F7F91B48DC3000F0F3F919488C3060604E
:103A60001430A06005E0E86A2168C96A814200D884
:103A700025600120E16A491CE162E96AA269884087
:103A80001043A06101EB8100291D07EB800000F0CD
:103A9000FDF900F02BFAE06900280CD02068E96AF3
:103AA000C06A884207D207494FF080500860BFF3D0
:103AB0004F8FBFF36F8FBDE8F0810000340000200E
:103AC000C408002004ED00E010B5044690F8510051
:103AD00068B101280ED0022811D0502072B680F3B0
:103AE0001188BFF34F8FBFF36F8F62B6FEE7206B75
:103AF00000F012FA2046BDE8104000F00DBA10BDEB
:103B000011484FF4705110B5420706D00E49C01D40
:103B100020F00700411AC1F570510C4C00230144FC
:103B20000839A4F1100221F00701C4E900030C1ABE
:103B300011604B600B60C0E9001494604FF00041CD
:103B40005460D16010BD0000B40900208000002046
:103B5000144E4FF08058144CDFF85090A6F1C8076F
:103B600012E000BF00F09EF9F068C568281D00F063
:103B700047F92069401E2061E068401EE06000F0C7
:103B8000B5F92846FFF7A0FFE0680028EAD13868B9
:103B90000128F9D9C9F80080BFF34F8FBFF36F8FA9
:103BA000F2E700008C0900203400002004ED00E062
:103BB0002DE9F0479A4681466FF00303DDE9098459
:103BC00003EB8202089E206B104420F00707780761
:103BD00009D0502072B680F31188BFF34F8FBFF326
:103BE0006F8F62B6FEE74FF0000561B10020231829
:103BF0000A5C83F834200A5C12B1401C1028F6D30A
:103C000084F8435001E084F83450072E00D3062690
:103C1000E662201DC4E9116500F01DF904F11800E9
:103C200000F019F9E564C6F10700A06184F850506E
:103C30005246246149463846646200F0C9F8B8F13A
:103C4000000F206001D0C8F80040BDE8F0870000F8
:103C500030B5114900E011460A688242FBD34B6837
:103C60005C18844203D14468084623444B6043688F
:103C70001D18954209D1084C103C2468A24209D075
:103C800052681A4442600A6812680260814200D099
:103C9000086030BD0460F9E78000002006484168F4
:103CA000096829B14168C968C968496801637047F2
:103CB0004FF0FF31FAE70000340000200A48406866
:103CC000401C4FF0500072B680F3118805D0BFF34E
:103CD0004F8FBFF36F8F62B6FEE7BFF34F8FBFF317
:103CE0006F8F62B6FEE70000880000202DE9F041EA
:103CF0000027044600F0B4F9344E306808B9FFF7E5
:103D0000FFFEF06804424FD1E4B30834600710D0DE
:103D100004F00700C0F108000444600709D05020F7
:103D200072B680F31188BFF34F8FBFF36F8F62B607
:103D3000FEE73CB37068844236D824481030014610
:103D40000D6801E028460D466968A14202D2296843
:103D50000029F7D131688D4226D0076829680160B3
:103D600008376868011B102911D9281942070AD0A1
:103D7000502072B680F31188BFF34F8FBFF36F8F5F
:103D800062B6FEE710E041606C60FFF761FF6968B2
:103D90007068401A7060B268904200D2B060002033
:103DA000F2681143C5E9000100F0B4FA780709D0C0
:103DB000502072B680F31188BFF34F8FBFF36F8F1F
:103DC00062B6FEE73846BDE8F081000070000020D2
:103DD00070B5041F094E231F4FF0807521F00101BB
:103DE00025601C1F1960A0F120010B1F26604438BC
:103DF0000A606FF002051D6070BD0000BD3C000848
:103E0000D0E9013201699A60D0E901235A604A6819
:103E1000824201D182684A60002202610868401E25
:103E2000086008687047000010B5044C80230460E7
:103E300004F154000860136010BD00002406002047
:103E40004FF0FF3300F108010022C0E901130260C6
:103E5000C1600161704700210161704730B50B6896
:103E60005A1C02D000F1080202E0026904E0224676
:103E7000546825689D42FAD953684B6099608A60FE
:103E8000516008610168491C016030BD42684A60A8
:103E900093688B6093685960916008610168491C60
:103EA00001607047502072B680F31188BFF34F8FC6
:103EB000BFF36F8F0B4962B64868401C4860012809
:103EC0000ED10948006810F0FF0F09D0502072B6DB
:103ED00080F31188BFF34F8FBFF36F8F62B6FEE799
:103EE000704700008800002004ED00E009494868A0
:103EF00028B1401E486001D180F3118870475020DE
:103F000072B680F31188BFF34F8FBFF36F8F62B625
:103F1000FEE700008800002070B500282BD0164D69
:103F2000A0F108046068E968084209D1502072B61F
:103F300080F31188BFF34F8FBFF36F8F62B6FEE738
:103F400022684AB1502072B680F31188BFF34F8FB8
:103F5000BFF36F8F62B6FEE78843606000F080F8C1
:103F600060686968084468602046FFF771FEBDE834
:103F7000704000F0CFB970BD700000204FF0E0201D
:103F8000002101614FF47A728161072303490968B6
:103F9000B1FBF2F1491E416103617047300000201E
:103FA000020010B516D01048806B48B1502072B690
:103FB00080F31188BFF34F8FBFF36F8F62B6FEE7B8
:103FC00000F04EF800211046FFF7DEFC00F0A2F9E9
:103FD000002807D105494FF080500860BFF34F8F8C
:103FE000BFF36F8F10BD00003400002004ED00E02F
:103FF00010B586B0002405AA04A9039403A804946C
:10400000FFF712FFDDE9030100940023CDE9011061
:1040100011480FA1059A00F0E8F8104900284863FC
:1040200013D0502072B680F31188BFF34F8FBFF3C7
:104030006F8F62B601224FF0FF300863CA614C6196
:1040400006B0BDE8104000F043B806B010BD000057
:1040500049444C4500000000513B0008340000205A
:104060000248816B491C81637047000034000020C6
:104070001548816B11B101214162704700214162F5
:1040800012498269B2FA82F2C2F11F0202EB820285
:1040900051F822306BB101EB820101F108034A684B
:1040A00052684A609A4201D152684A60D168016000
:1040B0007047502072B680F31188BFF34F8FBFF363
:1040C0006F8F62B6FEE7000034000020C4080020B5
:1040D0002B49FF201CB50A780192087008788DF8EA
:1040E00000009DF800209DF8000002F0F0028242DE
:1040F00009D0502072B680F31188BFF34F8FBFF301
:104100006F8F62B6FEE79DF8002007201D4C02F07D
:1041100050022270A06005E09DF8002052008DF84A
:104120000020401E9DF800201206F5D40328A06050
:1041300009D0502072B680F31188BFF34F8FBFF3C0
:104140006F8F62B6FEE74FF44070A0600198087070
:104150000D48016841F470010160016841F070414F
:104160000160FFF70BFF00206060FCF7C1F8074813
:10417000016841F040410160FCF7A6F800201CBD39
:1041800000E400E08800002020ED00E034EF00E0D3
:104190002DE9FF5F994616468A4683469000DDE981
:1041A0000E87FFF7A3FD05001CD05420FFF79EFDEE
:1041B000040014D00020256384F851004B46CDE95B
:1041C0000087CDE90240324651465846FFF7F0FCE1
:1041D0002046FFF711FC012004B0BDE8F09F2846FF
:1041E000FFF79AFE4FF0FF30F6E7F0B585B0DDE956
:1041F0000B740A9DA7B1ECB154262763022684F8FC
:104200005160002703970DF1100C0095CDE901C412
:10421000FFF7CEFC2046FFF7EFFB049805B0F0BD9A
:10422000502072B680F31188BFF34F8FBFF36F8FAA
:1042300062B6FEE7502072B680F31188BFF34F8F4D
:10424000BFF36F8F62B6FEE72DE9F0412F4CA06BF4
:10425000002740B1206A401C2062606A00B101273B
:104260003846BDE8F0816669761C666115D16068E4
:10427000006848B1502072B680F31188BFF34F8FA9
:10428000BFF36F8F62B6FEE76068A1686160A060EF
:10429000A06A401CA062FFF701FDDFF87480206B6C
:1042A000864209D36068006880B16068C068C568EC
:1042B000686886420DD220632068C06A00EB8001E6
:1042C00058F821000128C8D90127C6E74FF0FF3070
:1042D000F1E7281DFFF794FDA86A18B105F1180051
:1042E000FFF78EFDE86A0121A26981401143A161B7
:1042F00000EB800108EB8100291DFFF7C7FD206856
:10430000E96AC06A8142CDD30127CBE7340000209F
:10431000C40800202DE9F0472D4DA86B0024264647
:1043200038B1FFF7BFFDA86B401EA863A86B50B162
:1043300049E0502072B680F31188BFF34F8FBFF36E
:104340006F8F62B6FEE7234F01202969D9B3A7F129
:10435000B40980463868E8B1F868C46804F1180008
:10436000FFF74EFD201DFFF74BFDE16AAA6908FA31
:1043700001F01043A86101EB810109EB8100211DCF
:10438000FFF784FD2968E06AC96A8842E2D3C5F86C
:104390002480DFE70CB1FFF781FC2C6A44B147466B
:1043A000FFF752FF00B16F62641EF9D1002028624E
:1043B000686A40B1084901264FF080500860BFF399
:1043C0004F8FBFF36F8FFFF791FD3046BDE8F08749
:1043D000340000207809002004ED00E010B5002929
:1043E0000AD00878002807D005487844FCF796F9E9
:1043F000002801D0002010BD0248784410BD000004
:10440000E2000000DA0000004FF04070E1EE100A18
:1044100070470000A0440008512C00080000000074
:10442000000000008000000000000000000000000C
:10443000884400086D2C0008020000000000000005
:10444000800000000000000000000000944400080C
:10445000B92C0008020000000000000080000000ED
:1044600000000000000000000006101600061016F4
:104470000000000000000000010203040607080914
:1044800000000000010203046D795461736B303247
:10449000000000006D795461736B30330000000040
:1044A00064656661756C745461736B00DC4500086B
:1044B000000000209400000034020008704600084C
:1044C00094000020844B00005002000810010000FE
:1044D00043000000F8FFFFFF0040404040404040E4
:1044E00040404141414141404040404040404040C7
:1044F000404040404040404040050202020202026B
:1045000002020202020202020220202020202020B9
:1045100020202002020202020202909090909090CD
:10452000101010101010101010101010101010108B
:1045300010101010020202020202888888888888FF
:1045400008080808080808080808080808080808EB
:1045500008080808020202024000000000000000F3
:10456000000000000000000000000000000000004B
:10457000000000000000000000000000000000003B
:10458000000000000000000000000000000000002B
:10459000000000000000000000000000000000001B
:1045A000000000000000000000000000000000000B
:1045B00000000000000000000000000000000000FB
:1045C00000000000000000000000000000000000EB
:1045D00000000000000000000000000000000000DB
:1045E00000000000000000000000000000000000CB
:1045F00000000000000000000000000000000000BB
:104600000100000010000000000000000024F40081
:10461000000000000000000000000000000000009A
:10462000000000000000000000000000000000008A
:10463000000000000000000000000000000000007A
:10464000000000000000000000000000000000006A
:10465000000000000000000000000000000000005A
:104660000000000000000000AAAAAAAA00000000A2
:04000005080001F9F5
:00000001FF
